{
  "contractName": "Dnews",
  "abi": [
    {
      "inputs": [
        {
          "internalType": "contract Dcoin",
          "name": "_tokenContract",
          "type": "address"
        },
        {
          "internalType": "uint256",
          "name": "_tokenPrice",
          "type": "uint256"
        }
      ],
      "stateMutability": "nonpayable",
      "type": "constructor"
    },
    {
      "anonymous": false,
      "inputs": [
        {
          "indexed": false,
          "internalType": "address",
          "name": "user",
          "type": "address"
        },
        {
          "indexed": false,
          "internalType": "enum Dnews.PublishStatus",
          "name": "status",
          "type": "uint8"
        }
      ],
      "name": "PublishEvent",
      "type": "event"
    },
    {
      "anonymous": false,
      "inputs": [
        {
          "indexed": false,
          "internalType": "address",
          "name": "user",
          "type": "address"
        },
        {
          "indexed": false,
          "internalType": "enum Dnews.UserStatus",
          "name": "status",
          "type": "uint8"
        }
      ],
      "name": "UserEvent",
      "type": "event"
    },
    {
      "anonymous": false,
      "inputs": [
        {
          "indexed": false,
          "internalType": "address",
          "name": "user",
          "type": "address"
        },
        {
          "indexed": false,
          "internalType": "enum Dnews.Vote",
          "name": "vote",
          "type": "uint8"
        }
      ],
      "name": "VoteEvent",
      "type": "event"
    },
    {
      "inputs": [
        {
          "internalType": "string",
          "name": "",
          "type": "string"
        }
      ],
      "name": "articles",
      "outputs": [
        {
          "internalType": "bool",
          "name": "exist",
          "type": "bool"
        }
      ],
      "stateMutability": "view",
      "type": "function",
      "constant": true
    },
    {
      "inputs": [],
      "name": "commission",
      "outputs": [
        {
          "internalType": "uint256",
          "name": "",
          "type": "uint256"
        }
      ],
      "stateMutability": "view",
      "type": "function",
      "constant": true
    },
    {
      "inputs": [],
      "name": "minimumDeposit",
      "outputs": [
        {
          "internalType": "uint256",
          "name": "",
          "type": "uint256"
        }
      ],
      "stateMutability": "view",
      "type": "function",
      "constant": true
    },
    {
      "inputs": [],
      "name": "newsCoin",
      "outputs": [
        {
          "internalType": "contract Dcoin",
          "name": "",
          "type": "address"
        }
      ],
      "stateMutability": "view",
      "type": "function",
      "constant": true
    },
    {
      "inputs": [],
      "name": "owner",
      "outputs": [
        {
          "internalType": "address payable",
          "name": "",
          "type": "address"
        }
      ],
      "stateMutability": "view",
      "type": "function",
      "constant": true
    },
    {
      "inputs": [],
      "name": "reviewCommission",
      "outputs": [
        {
          "internalType": "uint256",
          "name": "",
          "type": "uint256"
        }
      ],
      "stateMutability": "view",
      "type": "function",
      "constant": true
    },
    {
      "inputs": [],
      "name": "tokenPrice",
      "outputs": [
        {
          "internalType": "uint256",
          "name": "",
          "type": "uint256"
        }
      ],
      "stateMutability": "view",
      "type": "function",
      "constant": true
    },
    {
      "inputs": [],
      "name": "tokensSold",
      "outputs": [
        {
          "internalType": "uint256",
          "name": "",
          "type": "uint256"
        }
      ],
      "stateMutability": "view",
      "type": "function",
      "constant": true
    },
    {
      "inputs": [
        {
          "internalType": "address",
          "name": "",
          "type": "address"
        }
      ],
      "name": "users",
      "outputs": [
        {
          "internalType": "uint256",
          "name": "balance",
          "type": "uint256"
        },
        {
          "internalType": "bool",
          "name": "exists",
          "type": "bool"
        },
        {
          "internalType": "uint256",
          "name": "articleCount",
          "type": "uint256"
        }
      ],
      "stateMutability": "view",
      "type": "function",
      "constant": true
    },
    {
      "inputs": [],
      "name": "register",
      "outputs": [],
      "stateMutability": "payable",
      "type": "function",
      "payable": true
    },
    {
      "inputs": [
        {
          "internalType": "string",
          "name": "articleHash",
          "type": "string"
        }
      ],
      "name": "publish",
      "outputs": [],
      "stateMutability": "payable",
      "type": "function",
      "payable": true
    },
    {
      "inputs": [],
      "name": "vote",
      "outputs": [],
      "stateMutability": "payable",
      "type": "function",
      "payable": true
    },
    {
      "inputs": [],
      "name": "read",
      "outputs": [],
      "stateMutability": "payable",
      "type": "function",
      "payable": true
    }
  ],
  "bytecode": "0x60806040523480156200001157600080fd5b506040516200161938038062001619833981810160405281019062000037919062000198565b336000806101000a81548173ffffffffffffffffffffffffffffffffffffffff021916908373ffffffffffffffffffffffffffffffffffffffff1602179055506002600181905550600a600381905550606460028190555081600460006101000a81548173ffffffffffffffffffffffffffffffffffffffff021916908373ffffffffffffffffffffffffffffffffffffffff160217905550806005819055505050620001df565b600080fd5b600073ffffffffffffffffffffffffffffffffffffffff82169050919050565b60006200011182620000e4565b9050919050565b6000620001258262000104565b9050919050565b620001378162000118565b81146200014357600080fd5b50565b60008151905062000157816200012c565b92915050565b6000819050919050565b62000172816200015d565b81146200017e57600080fd5b50565b600081519050620001928162000167565b92915050565b60008060408385031215620001b257620001b1620000df565b5b6000620001c28582860162000146565b9250506020620001d58582860162000181565b9150509250929050565b61142a80620001ef6000396000f3fe6080604052600436106100c25760003560e01c8063636bfbab1161007f5780638da5cb5b116100595780638da5cb5b146101ea578063a87430ba14610215578063e148919114610254578063fc7c5c621461027f576100c2565b8063636bfbab146101575780637c702b8d146101825780637ff9b596146101bf576100c2565b80630c2aaeab146100c75780631aa3a008146100f2578063243e280b146100fc578063518ab2a81461011857806357de26a414610143578063632a9a521461014d575b600080fd5b3480156100d357600080fd5b506100dc6102aa565b6040516100e99190610b94565b60405180910390f35b6100fa6102d0565b005b61011660048036038101906101119190610d09565b6104b1565b005b34801561012457600080fd5b5061012d61068b565b60405161013a9190610d6b565b60405180910390f35b61014b610691565b005b6101556108ca565b005b34801561016357600080fd5b5061016c610a61565b6040516101799190610d6b565b60405180910390f35b34801561018e57600080fd5b506101a960048036038101906101a49190610d09565b610a67565b6040516101b69190610da1565b60405180910390f35b3480156101cb57600080fd5b506101d4610aa8565b6040516101e19190610d6b565b60405180910390f35b3480156101f657600080fd5b506101ff610aae565b60405161020c9190610ddd565b60405180910390f35b34801561022157600080fd5b5061023c60048036038101906102379190610e36565b610ad2565b60405161024b93929190610e63565b60405180910390f35b34801561026057600080fd5b50610269610b09565b6040516102769190610d6b565b60405180910390f35b34801561028b57600080fd5b50610294610b0f565b6040516102a19190610d6b565b60405180910390f35b600460009054906101000a900473ffffffffffffffffffffffffffffffffffffffff1681565b600460009054906101000a900473ffffffffffffffffffffffffffffffffffffffff1673ffffffffffffffffffffffffffffffffffffffff166323b872dd60008054906101000a900473ffffffffffffffffffffffffffffffffffffffff1633346040518463ffffffff1660e01b815260040161034f93929190610eca565b6020604051808303816000875af115801561036e573d6000803e3d6000fd5b505050506040513d601f19601f820116820180604052508101906103929190610f2d565b50604051806060016040528034600760003373ffffffffffffffffffffffffffffffffffffffff1673ffffffffffffffffffffffffffffffffffffffff168152602001908152602001600020600001546103ec9190610f89565b81526020016001151581526020016000815250600760003373ffffffffffffffffffffffffffffffffffffffff1673ffffffffffffffffffffffffffffffffffffffff1681526020019081526020016000206000820151816000015560208201518160010160006101000a81548160ff021916908315150217905550604082015181600201559050507ffde1e8ebad99e93e1f78c519559cea75650c222d3fbcf9a76f5f167d3ceeda653360006040516104a7929190611034565b60405180910390a1565b60011515600760003373ffffffffffffffffffffffffffffffffffffffff1673ffffffffffffffffffffffffffffffffffffffff16815260200190815260200160002060010160009054906101000a900460ff16151514610547576040517f08c379a000000000000000000000000000000000000000000000000000000000815260040161053e906110e0565b60405180910390fd5b6001151560088260405161055b9190611171565b908152602001604051809103902060000160009054906101000a900460ff161515036105bc576040517f08c379a00000000000000000000000000000000000000000000000000000000081526004016105b3906111d4565b60405180910390fd5b60016008826040516105ce9190611171565b908152602001604051809103902060000160006101000a81548160ff021916908315150217905550600760003373ffffffffffffffffffffffffffffffffffffffff1673ffffffffffffffffffffffffffffffffffffffff1681526020019081526020016000206002016000815480929190610649906111f4565b91905055507f55b27f8504e5db8e34562cd3ff362559eb54785a4fd4e42d3c65710a201ade04336000604051610680929190611284565b60405180910390a150565b60065481565b60011515600760003373ffffffffffffffffffffffffffffffffffffffff1673ffffffffffffffffffffffffffffffffffffffff16815260200190815260200160002060010160009054906101000a900460ff16151514610727576040517f08c379a000000000000000000000000000000000000000000000000000000000815260040161071e906110e0565b60405180910390fd5b600460009054906101000a900473ffffffffffffffffffffffffffffffffffffffff1673ffffffffffffffffffffffffffffffffffffffff1663095ea7b3336103e86040518363ffffffff1660e01b81526004016107869291906112e8565b6020604051808303816000875af11580156107a5573d6000803e3d6000fd5b505050506040513d601f19601f820116820180604052508101906107c99190610f2d565b50600460009054906101000a900473ffffffffffffffffffffffffffffffffffffffff1673ffffffffffffffffffffffffffffffffffffffff166323b872dd3360008054906101000a900473ffffffffffffffffffffffffffffffffffffffff16600a6040518463ffffffff1660e01b815260040161084a9392919061134c565b6020604051808303816000875af1158015610869573d6000803e3d6000fd5b505050506040513d601f19601f8201168201806040525081019061088d9190610f2d565b507fb14236643441ae89f4e8db470337cc30657235a1e93464e4c0f919487f9af0e23360006040516108c09291906113cb565b60405180910390a1565b60011515600760003373ffffffffffffffffffffffffffffffffffffffff1673ffffffffffffffffffffffffffffffffffffffff16815260200190815260200160002060010160009054906101000a900460ff16151514610960576040517f08c379a0000000000000000000000000000000000000000000000000000000008152600401610957906110e0565b60405180910390fd5b600460009054906101000a900473ffffffffffffffffffffffffffffffffffffffff1673ffffffffffffffffffffffffffffffffffffffff166323b872dd60008054906101000a900473ffffffffffffffffffffffffffffffffffffffff16336003546040518463ffffffff1660e01b81526004016109e193929190610eca565b6020604051808303816000875af1158015610a00573d6000803e3d6000fd5b505050506040513d601f19601f82011682018060405250810190610a249190610f2d565b507fb14236643441ae89f4e8db470337cc30657235a1e93464e4c0f919487f9af0e2336000604051610a579291906113cb565b60405180910390a1565b60025481565b6008818051602081018201805184825260208301602085012081835280955050505050506000915090508060000160009054906101000a900460ff16905081565b60055481565b60008054906101000a900473ffffffffffffffffffffffffffffffffffffffff1681565b60076020528060005260406000206000915090508060000154908060010160009054906101000a900460ff16908060020154905083565b60015481565b60035481565b600073ffffffffffffffffffffffffffffffffffffffff82169050919050565b6000819050919050565b6000610b5a610b55610b5084610b15565b610b35565b610b15565b9050919050565b6000610b6c82610b3f565b9050919050565b6000610b7e82610b61565b9050919050565b610b8e81610b73565b82525050565b6000602082019050610ba96000830184610b85565b92915050565b6000604051905090565b600080fd5b600080fd5b600080fd5b600080fd5b6000601f19601f8301169050919050565b7f4e487b7100000000000000000000000000000000000000000000000000000000600052604160045260246000fd5b610c1682610bcd565b810181811067ffffffffffffffff82111715610c3557610c34610bde565b5b80604052505050565b6000610c48610baf565b9050610c548282610c0d565b919050565b600067ffffffffffffffff821115610c7457610c73610bde565b5b610c7d82610bcd565b9050602081019050919050565b82818337600083830152505050565b6000610cac610ca784610c59565b610c3e565b905082815260208101848484011115610cc857610cc7610bc8565b5b610cd3848285610c8a565b509392505050565b600082601f830112610cf057610cef610bc3565b5b8135610d00848260208601610c99565b91505092915050565b600060208284031215610d1f57610d1e610bb9565b5b600082013567ffffffffffffffff811115610d3d57610d3c610bbe565b5b610d4984828501610cdb565b91505092915050565b6000819050919050565b610d6581610d52565b82525050565b6000602082019050610d806000830184610d5c565b92915050565b60008115159050919050565b610d9b81610d86565b82525050565b6000602082019050610db66000830184610d92565b92915050565b6000610dc782610b15565b9050919050565b610dd781610dbc565b82525050565b6000602082019050610df26000830184610dce565b92915050565b6000610e0382610b15565b9050919050565b610e1381610df8565b8114610e1e57600080fd5b50565b600081359050610e3081610e0a565b92915050565b600060208284031215610e4c57610e4b610bb9565b5b6000610e5a84828501610e21565b91505092915050565b6000606082019050610e786000830186610d5c565b610e856020830185610d92565b610e926040830184610d5c565b949350505050565b6000610ea582610b61565b9050919050565b610eb581610e9a565b82525050565b610ec481610df8565b82525050565b6000606082019050610edf6000830186610eac565b610eec6020830185610ebb565b610ef96040830184610d5c565b949350505050565b610f0a81610d86565b8114610f1557600080fd5b50565b600081519050610f2781610f01565b92915050565b600060208284031215610f4357610f42610bb9565b5b6000610f5184828501610f18565b91505092915050565b7f4e487b7100000000000000000000000000000000000000000000000000000000600052601160045260246000fd5b6000610f9482610d52565b9150610f9f83610d52565b9250828201905080821115610fb757610fb6610f5a565b5b92915050565b7f4e487b7100000000000000000000000000000000000000000000000000000000600052602160045260246000fd5b60028110610ffd57610ffc610fbd565b5b50565b600081905061100e82610fec565b919050565b600061101e82611000565b9050919050565b61102e81611013565b82525050565b60006040820190506110496000830185610ebb565b6110566020830184611025565b9392505050565b600082825260208201905092915050565b7f4f7065726174696f6e20697320616c6c6f776564206f6e6c792062792072656760008201527f6973746572656420757365727300000000000000000000000000000000000000602082015250565b60006110ca602d8361105d565b91506110d58261106e565b604082019050919050565b600060208201905081810360008301526110f9816110bd565b9050919050565b600081519050919050565b600081905092915050565b60005b83811015611134578082015181840152602081019050611119565b60008484015250505050565b600061114b82611100565b611155818561110b565b9350611165818560208601611116565b80840191505092915050565b600061117d8284611140565b915081905092915050565b7f546869732061727469636c6520616c7265616479206578697374000000000000600082015250565b60006111be601a8361105d565b91506111c982611188565b602082019050919050565b600060208201905081810360008301526111ed816111b1565b9050919050565b60006111ff82610d52565b91507fffffffffffffffffffffffffffffffffffffffffffffffffffffffffffffffff820361123157611230610f5a565b5b600182019050919050565b6002811061124d5761124c610fbd565b5b50565b600081905061125e8261123c565b919050565b600061126e82611250565b9050919050565b61127e81611263565b82525050565b60006040820190506112996000830185610ebb565b6112a66020830184611275565b9392505050565b6000819050919050565b60006112d26112cd6112c8846112ad565b610b35565b610d52565b9050919050565b6112e2816112b7565b82525050565b60006040820190506112fd6000830185610ebb565b61130a60208301846112d9565b9392505050565b6000819050919050565b600061133661133161132c84611311565b610b35565b610d52565b9050919050565b6113468161131b565b82525050565b60006060820190506113616000830186610ebb565b61136e6020830185610eac565b61137b604083018461133d565b949350505050565b6002811061139457611393610fbd565b5b50565b60008190506113a582611383565b919050565b60006113b582611397565b9050919050565b6113c5816113aa565b82525050565b60006040820190506113e06000830185610ebb565b6113ed60208301846113bc565b939250505056fea2646970667358221220e7c2e83b263853207cf110d4a54ec7be159527b383de07d6b9779e858968c91c64736f6c63430008110033",
  "immutableReferences": {},
  "source": "// SPDX-License-Identifier: GPL-3.0\r\n\r\npragma solidity 0.8.17;\r\nimport \"./Dcoin.sol\";\r\n\r\n///@title Dnews\r\n/// @author Ashish\r\ncontract Dnews\r\n{\r\n//    using SafeMath for uint;\r\n\r\n    address payable public owner;  //address of the chairperson\r\n    uint public commission;   //percent of commsion payed to the chairperson\r\n    uint public minimumDeposit; //minimum deposit required for each register\r\n    uint public reviewCommission; //commision payed to the reviewer\r\n\r\n    Dcoin public newsCoin;\r\n    uint256 public tokenPrice;\r\n    uint256 public tokensSold;\r\n \r\n   //enums to be used in events\r\n    // enum ServiceStatus{Requested, Active, Rejected, Cancelled, Inactive}\r\n    enum UserStatus{Registered, Failed}\r\n    enum PublishStatus{Published, Revoked}\r\n    enum Vote{For, Against}\r\n\r\n    struct User{\r\n        uint balance;\r\n        bool exists;\r\n        uint articleCount;\r\n\r\n    }\r\n\r\n   struct Article{ \r\n       bool exist;\r\n   }\r\n   \r\n   mapping(address => User) public  users;   //mapping from user address to user \r\n   mapping(string =>  Article) public articles; // mapping from articleid to article\r\n\r\n\r\n\r\n    event PublishEvent(address user, PublishStatus status);\r\n    event UserEvent(address user, UserStatus status);\r\n    event VoteEvent(address user,Vote vote);\r\n\r\n\r\n\r\n///modifiers\r\n modifier onlyUser(){\r\n        require(users[msg.sender].exists == true, \"Operation is allowed only by registered users\");\r\n        _;\r\n    }\r\n\r\n\r\n/// @dev Constructor to initialize the chairperson, commission, and minimum deposit \r\n   constructor (Dcoin  _tokenContract, uint256 _tokenPrice)  {\r\n        owner = payable(msg.sender);\r\n        commission = 2;\r\n        reviewCommission=10;\r\n        minimumDeposit = 10 ** 2;\r\n\r\n        newsCoin = _tokenContract;\r\n        tokenPrice=_tokenPrice;\r\n    }\r\n\r\n\r\n/// @notice Allows users to self-register to the newsapp\r\n    function register() public payable{\r\n        // require(msg.value >= minimumDeposit, \"User must deposit funds greater than minimum deposit\");\r\n        \r\n\r\n        newsCoin.transferFrom(owner, msg.sender, msg.value);\r\n        \r\n        users[msg.sender] = User(users[msg.sender].balance + msg.value, \r\n                                    true, \r\n                                       0 \r\n                                       );\r\n\r\n            emit UserEvent(msg.sender,UserStatus.Registered);\r\n    }\r\n\r\n\r\n/// @notice Allows users to  publish article on chain\r\n  function publish(string memory articleHash) public  payable onlyUser{\r\n        \r\n        require( articles[articleHash].exist!=true,\"This article already exist\");\r\n        \r\n        articles[articleHash].exist=true; //put the article in the mapping\r\n        users[msg.sender].articleCount++; //increase the article count of the user\r\n\r\n        emit PublishEvent(msg.sender,PublishStatus.Published);\r\n  \r\n  }\r\n\r\n/// @notice Allows users to vote for an article\r\n  function vote() public  payable onlyUser{\r\n    \r\n     newsCoin.transferFrom(owner, msg.sender,reviewCommission );\r\n \r\n     emit VoteEvent(msg.sender,Vote.For);\r\n     \r\n\r\n}\r\n\r\n/// @notice Allows users to vote for an article\r\n  function read() public  payable onlyUser{\r\n\r\n    newsCoin.approve(msg.sender,1000);\r\n     newsCoin.transferFrom(msg.sender, owner,10);\r\n\r\n     emit VoteEvent(msg.sender,Vote.For);\r\n     \r\n\r\n}\r\n\r\n\r\n\r\n}",
  "sourcePath": "C:\\Users\\Ashish Kumar\\Documents\\hacking-2023\\ubh-fall2022-repotemplate-bhosalems\\smart-contract\\contracts\\Dnews.sol",
  "compiler": {
    "name": "solc",
    "version": "0.8.17+commit.8df45f5f.Emscripten.clang"
  },
  "schemaVersion": "3.4.10",
  "updatedAt": "2022-11-06T02:57:02.059Z",
  "networkType": "ethereum",
  "devdoc": {
    "author": "Ashish",
    "kind": "dev",
    "methods": {
      "constructor": {
        "details": "Constructor to initialize the chairperson, commission, and minimum deposit "
      }
    },
    "title": "Dnews",
    "version": 1
  },
  "userdoc": {
    "kind": "user",
    "methods": {
      "publish(string)": {
        "notice": "Allows users to  publish article on chain"
      },
      "read()": {
        "notice": "Allows users to vote for an article"
      },
      "register()": {
        "notice": "Allows users to self-register to the newsapp"
      },
      "vote()": {
        "notice": "Allows users to vote for an article"
      }
    },
    "version": 1
  }
}